{
  "contractName": "MySmartContract",
  "abi": [
    {
      "inputs": [
        {
          "internalType": "address",
          "name": "_daiToken",
          "type": "address"
        },
        {
          "internalType": "contract PiperToken",
          "name": "_pToken",
          "type": "address"
        }
      ],
      "stateMutability": "nonpayable",
      "type": "constructor"
    },
    {
      "anonymous": false,
      "inputs": [
        {
          "indexed": false,
          "internalType": "uint256",
          "name": "amount",
          "type": "uint256"
        }
      ],
      "name": "Send",
      "type": "event"
    },
    {
      "anonymous": false,
      "inputs": [
        {
          "indexed": false,
          "internalType": "uint256",
          "name": "amount",
          "type": "uint256"
        }
      ],
      "name": "Unsend",
      "type": "event"
    },
    {
      "inputs": [],
      "name": "dai",
      "outputs": [
        {
          "internalType": "contract IERC20",
          "name": "",
          "type": "address"
        }
      ],
      "stateMutability": "view",
      "type": "function",
      "constant": true
    },
    {
      "inputs": [
        {
          "internalType": "address",
          "name": "",
          "type": "address"
        }
      ],
      "name": "hasInvested",
      "outputs": [
        {
          "internalType": "bool",
          "name": "",
          "type": "bool"
        }
      ],
      "stateMutability": "view",
      "type": "function",
      "constant": true
    },
    {
      "inputs": [
        {
          "internalType": "uint256",
          "name": "",
          "type": "uint256"
        }
      ],
      "name": "investers",
      "outputs": [
        {
          "internalType": "address",
          "name": "",
          "type": "address"
        }
      ],
      "stateMutability": "view",
      "type": "function",
      "constant": true
    },
    {
      "inputs": [
        {
          "internalType": "address",
          "name": "",
          "type": "address"
        }
      ],
      "name": "investingBalance",
      "outputs": [
        {
          "internalType": "uint256",
          "name": "",
          "type": "uint256"
        }
      ],
      "stateMutability": "view",
      "type": "function",
      "constant": true
    },
    {
      "inputs": [
        {
          "internalType": "address",
          "name": "",
          "type": "address"
        }
      ],
      "name": "isInvesting",
      "outputs": [
        {
          "internalType": "bool",
          "name": "",
          "type": "bool"
        }
      ],
      "stateMutability": "view",
      "type": "function",
      "constant": true
    },
    {
      "inputs": [],
      "name": "owner",
      "outputs": [
        {
          "internalType": "address",
          "name": "",
          "type": "address"
        }
      ],
      "stateMutability": "view",
      "type": "function",
      "constant": true
    },
    {
      "inputs": [],
      "name": "pToken",
      "outputs": [
        {
          "internalType": "contract PiperToken",
          "name": "",
          "type": "address"
        }
      ],
      "stateMutability": "view",
      "type": "function",
      "constant": true
    },
    {
      "inputs": [],
      "name": "bal",
      "outputs": [
        {
          "internalType": "uint256",
          "name": "",
          "type": "uint256"
        }
      ],
      "stateMutability": "view",
      "type": "function",
      "constant": true
    },
    {
      "inputs": [
        {
          "internalType": "uint256",
          "name": "_amount",
          "type": "uint256"
        }
      ],
      "name": "investTokens",
      "outputs": [],
      "stateMutability": "payable",
      "type": "function",
      "payable": true
    },
    {
      "inputs": [],
      "name": "withdraw",
      "outputs": [],
      "stateMutability": "nonpayable",
      "type": "function"
    }
  ],
  "bytecode": "0x60806040523480156200001157600080fd5b50604051620011163803806200111683398181016040528101906200003791906200012f565b81600160006101000a81548173ffffffffffffffffffffffffffffffffffffffff021916908373ffffffffffffffffffffffffffffffffffffffff16021790555080600260006101000a81548173ffffffffffffffffffffffffffffffffffffffff021916908373ffffffffffffffffffffffffffffffffffffffff160217905550336000806101000a81548173ffffffffffffffffffffffffffffffffffffffff021916908373ffffffffffffffffffffffffffffffffffffffff1602179055505050620001ec565b6000815190506200011281620001b8565b92915050565b6000815190506200012981620001d2565b92915050565b600080604083850312156200014357600080fd5b6000620001538582860162000101565b9250506020620001668582860162000118565b9150509250929050565b60006200017d8262000198565b9050919050565b6000620001918262000170565b9050919050565b600073ffffffffffffffffffffffffffffffffffffffff82169050919050565b620001c38162000170565b8114620001cf57600080fd5b50565b620001dd8162000184565b8114620001e957600080fd5b50565b610f1a80620001fc6000396000f3fe6080604052600436106100ae576000357c01000000000000000000000000000000000000000000000000000000009004806362833fcf1161007657806362833fcf1461019a5780638da5cb5b146101d7578063deca275114610202578063edb9a5c01461021e578063f4b9fa751461025b576100ae565b8063058c021d146100b35780633ccfd60b146100f05780633d79d1c81461010757806358a06f0714610132578063621ab0811461015d575b600080fd5b3480156100bf57600080fd5b506100da60048036038101906100d59190610b35565b610286565b6040516100e79190610c52565b60405180910390f35b3480156100fc57600080fd5b506101056102c5565b005b34801561011357600080fd5b5061011c6104ef565b6040516101299190610d5e565b60405180910390f35b34801561013e57600080fd5b506101476105bd565b6040516101549190610d03565b60405180910390f35b34801561016957600080fd5b50610184600480360381019061017f9190610ae3565b6105e3565b6040516101919190610d5e565b60405180910390f35b3480156101a657600080fd5b506101c160048036038101906101bc9190610ae3565b6105fb565b6040516101ce9190610ccd565b60405180910390f35b3480156101e357600080fd5b506101ec61061b565b6040516101f99190610c52565b60405180910390f35b61021c60048036038101906102179190610b35565b61063f565b005b34801561022a57600080fd5b5061024560048036038101906102409190610ae3565b610a49565b6040516102529190610ccd565b60405180910390f35b34801561026757600080fd5b50610270610a69565b60405161027d9190610ce8565b60405180910390f35b6003818154811061029657600080fd5b906000526020600020016000915054906101000a900473ffffffffffffffffffffffffffffffffffffffff1681565b6000600460003373ffffffffffffffffffffffffffffffffffffffff1673ffffffffffffffffffffffffffffffffffffffff1681526020019081526020016000205490506000811161034c576040517f08c379a000000000000000000000000000000000000000000000000000000000815260040161034390610d1e565b60405180910390fd5b600160009054906101000a900473ffffffffffffffffffffffffffffffffffffffff1673ffffffffffffffffffffffffffffffffffffffff1663a9059cbb33836040518363ffffffff167c01000000000000000000000000000000000000000000000000000000000281526004016103c5929190610ca4565b602060405180830381600087803b1580156103df57600080fd5b505af11580156103f3573d6000803e3d6000fd5b505050506040513d601f19601f820116820180604052508101906104179190610b0c565b506000600460003373ffffffffffffffffffffffffffffffffffffffff1673ffffffffffffffffffffffffffffffffffffffff168152602001908152602001600020819055506000600660003373ffffffffffffffffffffffffffffffffffffffff1673ffffffffffffffffffffffffffffffffffffffff16815260200190815260200160002060006101000a81548160ff0219169083151502179055507fdde5321c1ce3b4978008f2336687eb46631fa0acf28d7ca88f8c2e1ad46ce5c7816040516104e49190610d5e565b60405180910390a150565b6000600160009054906101000a900473ffffffffffffffffffffffffffffffffffffffff1673ffffffffffffffffffffffffffffffffffffffff166370a08231336040518263ffffffff167c01000000000000000000000000000000000000000000000000000000000281526004016105689190610c52565b60206040518083038186803b15801561058057600080fd5b505afa158015610594573d6000803e3d6000fd5b505050506040513d601f19601f820116820180604052508101906105b89190610b5e565b905090565b600260009054906101000a900473ffffffffffffffffffffffffffffffffffffffff1681565b60046020528060005260406000206000915090505481565b60066020528060005260406000206000915054906101000a900460ff1681565b60008054906101000a900473ffffffffffffffffffffffffffffffffffffffff1681565b60008111610682576040517f08c379a000000000000000000000000000000000000000000000000000000000815260040161067990610d3e565b60405180910390fd5b600160009054906101000a900473ffffffffffffffffffffffffffffffffffffffff1673ffffffffffffffffffffffffffffffffffffffff166323b872dd3330846040518463ffffffff167c01000000000000000000000000000000000000000000000000000000000281526004016106fd93929190610c6d565b602060405180830381600087803b15801561071757600080fd5b505af115801561072b573d6000803e3d6000fd5b505050506040513d601f19601f8201168201806040525081019061074f9190610b0c565b50600260009054906101000a900473ffffffffffffffffffffffffffffffffffffffff1673ffffffffffffffffffffffffffffffffffffffff1663a9059cbb33836040518363ffffffff167c01000000000000000000000000000000000000000000000000000000000281526004016107c9929190610ca4565b602060405180830381600087803b1580156107e357600080fd5b505af11580156107f7573d6000803e3d6000fd5b505050506040513d601f19601f8201168201806040525081019061081b9190610b0c565b5080600460003373ffffffffffffffffffffffffffffffffffffffff1673ffffffffffffffffffffffffffffffffffffffff168152602001908152602001600020546108679190610d8a565b600460003373ffffffffffffffffffffffffffffffffffffffff1673ffffffffffffffffffffffffffffffffffffffff16815260200190815260200160002081905550600560003373ffffffffffffffffffffffffffffffffffffffff1673ffffffffffffffffffffffffffffffffffffffff16815260200190815260200160002060009054906101000a900460ff1661095f576003339080600181540180825580915050600190039060005260206000200160009091909190916101000a81548173ffffffffffffffffffffffffffffffffffffffff021916908373ffffffffffffffffffffffffffffffffffffffff1602179055505b6001600660003373ffffffffffffffffffffffffffffffffffffffff1673ffffffffffffffffffffffffffffffffffffffff16815260200190815260200160002060006101000a81548160ff0219169083151502179055506001600560003373ffffffffffffffffffffffffffffffffffffffff1673ffffffffffffffffffffffffffffffffffffffff16815260200190815260200160002060006101000a81548160ff0219169083151502179055507f86c3b87594371e15572651c1f5731ba0bc5fd4849502e9999ab2bfe1f3c0c2c781604051610a3e9190610d5e565b60405180910390a150565b60056020528060005260406000206000915054906101000a900460ff1681565b600160009054906101000a900473ffffffffffffffffffffffffffffffffffffffff1681565b600081359050610a9e81610e9f565b92915050565b600081519050610ab381610eb6565b92915050565b600081359050610ac881610ecd565b92915050565b600081519050610add81610ecd565b92915050565b600060208284031215610af557600080fd5b6000610b0384828501610a8f565b91505092915050565b600060208284031215610b1e57600080fd5b6000610b2c84828501610aa4565b91505092915050565b600060208284031215610b4757600080fd5b6000610b5584828501610ab9565b91505092915050565b600060208284031215610b7057600080fd5b6000610b7e84828501610ace565b91505092915050565b610b9081610de0565b82525050565b610b9f81610df2565b82525050565b610bae81610e28565b82525050565b610bbd81610e4c565b82525050565b6000610bd0601d83610d79565b91507f696e76657374696e672062616c616e63652063616e6e6f7420626520300000006000830152602082019050919050565b6000610c10601283610d79565b91507f616d6f756e742063616e6e6f74206265203000000000000000000000000000006000830152602082019050919050565b610c4c81610e1e565b82525050565b6000602082019050610c676000830184610b87565b92915050565b6000606082019050610c826000830186610b87565b610c8f6020830185610b87565b610c9c6040830184610c43565b949350505050565b6000604082019050610cb96000830185610b87565b610cc66020830184610c43565b9392505050565b6000602082019050610ce26000830184610b96565b92915050565b6000602082019050610cfd6000830184610ba5565b92915050565b6000602082019050610d186000830184610bb4565b92915050565b60006020820190508181036000830152610d3781610bc3565b9050919050565b60006020820190508181036000830152610d5781610c03565b9050919050565b6000602082019050610d736000830184610c43565b92915050565b600082825260208201905092915050565b6000610d9582610e1e565b9150610da083610e1e565b9250827fffffffffffffffffffffffffffffffffffffffffffffffffffffffffffffffff03821115610dd557610dd4610e70565b5b828201905092915050565b6000610deb82610dfe565b9050919050565b60008115159050919050565b600073ffffffffffffffffffffffffffffffffffffffff82169050919050565b6000819050919050565b6000610e3382610e3a565b9050919050565b6000610e4582610dfe565b9050919050565b6000610e5782610e5e565b9050919050565b6000610e6982610dfe565b9050919050565b7f4e487b7100000000000000000000000000000000000000000000000000000000600052601160045260246000fd5b610ea881610de0565b8114610eb357600080fd5b50565b610ebf81610df2565b8114610eca57600080fd5b50565b610ed681610e1e565b8114610ee157600080fd5b5056fea2646970667358221220fab4157be5e16342fbcd634bc3d1e520b83b08941c8392128aa6d127b55d63a964736f6c63430008000033",
  "immutableReferences": {},
  "source": "// SPDX-License-Identifier: GPL-3.0\r\npragma solidity ^0.8.0;\r\n\r\nimport '@openzeppelin/contracts/token/ERC20/IERC20.sol';\r\nimport '@openzeppelin/contracts/token/ERC20/ERC20.sol';\r\nimport \"./PiperToken.sol\";\r\n\r\ncontract MySmartContract {\r\n    address public owner;\r\n    IERC20 public dai;\r\n    PiperToken public pToken;\r\n\r\n    event Send(uint amount);\r\n    event Unsend(uint amount);\r\n    \r\n    address[] public investers;\r\n    mapping(address => uint) public investingBalance;\r\n    mapping(address => bool) public hasInvested;\r\n    mapping(address => bool) public isInvesting;\r\n\r\n\r\n\r\n    constructor(address _daiToken, PiperToken _pToken) {\r\n        dai = IERC20(_daiToken);\r\n\t    pToken = _pToken;\r\n\t    owner = msg.sender;\r\n    }\r\n\r\n    function bal() view public returns (uint) {\r\n        return dai.balanceOf(address(msg.sender));\r\n    }\r\n    \r\n    function investTokens(uint _amount) external payable {\r\n        // Require amount greater than 0\r\n        require(_amount > 0, \"amount cannot be 0\");\r\n\r\n        // Trasnfer Mock Dai tokens to this contract for investing\r\n        dai.transferFrom(msg.sender, address(this), _amount);\r\n\t    pToken.transfer(msg.sender, _amount);\r\n\r\n        // Update investing balance\r\n        investingBalance[msg.sender] = investingBalance[msg.sender] + _amount;\r\n\r\n        // Add user to investers array *only* if they haven't invested already\r\n        if(!hasInvested[msg.sender]) {\r\n            investers.push(msg.sender);\r\n        }\r\n\r\n        // Update investing status\r\n        isInvesting[msg.sender] = true;\r\n        hasInvested[msg.sender] = true;\r\n\r\n        emit Send(_amount);\r\n    }\r\n\r\n    function withdraw() public {\r\n        // Fetch staking balance\r\n        uint balance = investingBalance[msg.sender];\r\n\r\n        // Require amount greater than 0\r\n        require(balance > 0, \"investing balance cannot be 0\");\r\n\r\n        // Transfer Mock Dai tokens to this contract for staking\r\n        dai.transfer(msg.sender, balance);\r\n\r\n        // Reset investing balance\r\n        investingBalance[msg.sender] = 0;\r\n\r\n        // Update investing status\r\n        isInvesting[msg.sender] = false;\r\n        emit Unsend(balance);\r\n\r\n        // 1 week Dai -> piperCoin X -> thoughts \r\n        // 1 inch limit order on Dai \r\n        // Frontend  \r\n    }\r\n\t\r\n\t\r\n}\r\n\r\n",
  "sourcePath": "D:\\Solidity_Projects\\piperSwap\\contracts\\MySmartContract.sol",
  "compiler": {
    "name": "solc",
    "version": "0.8.0+commit.c7dfd78e.Emscripten.clang"
  },
  "schemaVersion": "3.4.3",
  "updatedAt": "2021-09-29T18:32:54.749Z",
  "networkType": "ethereum",
  "devdoc": {
    "kind": "dev",
    "methods": {},
    "version": 1
  },
  "userdoc": {
    "kind": "user",
    "methods": {},
    "version": 1
  }
}