{
  "contractName": "MySmartContract",
  "abi": [
    {
      "inputs": [
        {
          "internalType": "address",
          "name": "_daiToken",
          "type": "address"
        },
        {
          "internalType": "contract PiperToken",
          "name": "_pToken",
          "type": "address"
        }
      ],
      "stateMutability": "nonpayable",
      "type": "constructor"
    },
    {
      "anonymous": false,
      "inputs": [
        {
          "indexed": false,
          "internalType": "uint256",
          "name": "amount",
          "type": "uint256"
        }
      ],
      "name": "Send",
      "type": "event"
    },
    {
      "anonymous": false,
      "inputs": [
        {
          "indexed": false,
          "internalType": "uint256",
          "name": "amount",
          "type": "uint256"
        }
      ],
      "name": "Unsend",
      "type": "event"
    },
    {
      "inputs": [],
      "name": "dai",
      "outputs": [
        {
          "internalType": "contract IERC20",
          "name": "",
          "type": "address"
        }
      ],
      "stateMutability": "view",
      "type": "function",
      "constant": true
    },
    {
      "inputs": [
        {
          "internalType": "address",
          "name": "",
          "type": "address"
        }
      ],
      "name": "hasInvested",
      "outputs": [
        {
          "internalType": "bool",
          "name": "",
          "type": "bool"
        }
      ],
      "stateMutability": "view",
      "type": "function",
      "constant": true
    },
    {
      "inputs": [
        {
          "internalType": "uint256",
          "name": "",
          "type": "uint256"
        }
      ],
      "name": "investers",
      "outputs": [
        {
          "internalType": "address",
          "name": "",
          "type": "address"
        }
      ],
      "stateMutability": "view",
      "type": "function",
      "constant": true
    },
    {
      "inputs": [
        {
          "internalType": "address",
          "name": "",
          "type": "address"
        }
      ],
      "name": "investingBalance",
      "outputs": [
        {
          "internalType": "uint256",
          "name": "",
          "type": "uint256"
        }
      ],
      "stateMutability": "view",
      "type": "function",
      "constant": true
    },
    {
      "inputs": [
        {
          "internalType": "address",
          "name": "",
          "type": "address"
        }
      ],
      "name": "isInvesting",
      "outputs": [
        {
          "internalType": "bool",
          "name": "",
          "type": "bool"
        }
      ],
      "stateMutability": "view",
      "type": "function",
      "constant": true
    },
    {
      "inputs": [],
      "name": "owner",
      "outputs": [
        {
          "internalType": "address",
          "name": "",
          "type": "address"
        }
      ],
      "stateMutability": "view",
      "type": "function",
      "constant": true
    },
    {
      "inputs": [],
      "name": "pToken",
      "outputs": [
        {
          "internalType": "contract PiperToken",
          "name": "",
          "type": "address"
        }
      ],
      "stateMutability": "view",
      "type": "function",
      "constant": true
    },
    {
      "inputs": [],
      "name": "bal",
      "outputs": [
        {
          "internalType": "uint256",
          "name": "",
          "type": "uint256"
        }
      ],
      "stateMutability": "view",
      "type": "function",
      "constant": true
    },
    {
      "inputs": [
        {
          "internalType": "uint256",
          "name": "_amount",
          "type": "uint256"
        }
      ],
      "name": "investTokens",
      "outputs": [],
      "stateMutability": "nonpayable",
      "type": "function"
    },
    {
      "inputs": [],
      "name": "withdraw",
      "outputs": [],
      "stateMutability": "nonpayable",
      "type": "function"
    }
  ],
  "bytecode": "0x60806040523480156200001157600080fd5b50604051620010ae380380620010ae83398181016040528101906200003791906200012f565b81600160006101000a81548173ffffffffffffffffffffffffffffffffffffffff021916908373ffffffffffffffffffffffffffffffffffffffff16021790555080600260006101000a81548173ffffffffffffffffffffffffffffffffffffffff021916908373ffffffffffffffffffffffffffffffffffffffff160217905550336000806101000a81548173ffffffffffffffffffffffffffffffffffffffff021916908373ffffffffffffffffffffffffffffffffffffffff1602179055505050620001ec565b6000815190506200011281620001b8565b92915050565b6000815190506200012981620001d2565b92915050565b600080604083850312156200014357600080fd5b6000620001538582860162000101565b9250506020620001668582860162000118565b9150509250929050565b60006200017d8262000198565b9050919050565b6000620001918262000170565b9050919050565b600073ffffffffffffffffffffffffffffffffffffffff82169050919050565b620001c38162000170565b8114620001cf57600080fd5b50565b620001dd8162000184565b8114620001e957600080fd5b50565b610eb280620001fc6000396000f3fe608060405234801561001057600080fd5b50600436106100bb576000357c01000000000000000000000000000000000000000000000000000000009004806362833fcf1161008357806362833fcf146101665780638da5cb5b14610196578063deca2751146101b4578063edb9a5c0146101d0578063f4b9fa7514610200576100bb565b8063058c021d146100c05780633ccfd60b146100f05780633d79d1c8146100fa57806358a06f0714610118578063621ab08114610136575b600080fd5b6100da60048036038101906100d59190610acd565b61021e565b6040516100e79190610bea565b60405180910390f35b6100f861025d565b005b610102610487565b60405161010f9190610cf6565b60405180910390f35b610120610555565b60405161012d9190610c9b565b60405180910390f35b610150600480360381019061014b9190610a7b565b61057b565b60405161015d9190610cf6565b60405180910390f35b610180600480360381019061017b9190610a7b565b610593565b60405161018d9190610c65565b60405180910390f35b61019e6105b3565b6040516101ab9190610bea565b60405180910390f35b6101ce60048036038101906101c99190610acd565b6105d7565b005b6101ea60048036038101906101e59190610a7b565b6109e1565b6040516101f79190610c65565b60405180910390f35b610208610a01565b6040516102159190610c80565b60405180910390f35b6003818154811061022e57600080fd5b906000526020600020016000915054906101000a900473ffffffffffffffffffffffffffffffffffffffff1681565b6000600460003373ffffffffffffffffffffffffffffffffffffffff1673ffffffffffffffffffffffffffffffffffffffff168152602001908152602001600020549050600081116102e4576040517f08c379a00000000000000000000000000000000000000000000000000000000081526004016102db90610cb6565b60405180910390fd5b600160009054906101000a900473ffffffffffffffffffffffffffffffffffffffff1673ffffffffffffffffffffffffffffffffffffffff1663a9059cbb33836040518363ffffffff167c010000000000000000000000000000000000000000000000000000000002815260040161035d929190610c3c565b602060405180830381600087803b15801561037757600080fd5b505af115801561038b573d6000803e3d6000fd5b505050506040513d601f19601f820116820180604052508101906103af9190610aa4565b506000600460003373ffffffffffffffffffffffffffffffffffffffff1673ffffffffffffffffffffffffffffffffffffffff168152602001908152602001600020819055506000600660003373ffffffffffffffffffffffffffffffffffffffff1673ffffffffffffffffffffffffffffffffffffffff16815260200190815260200160002060006101000a81548160ff0219169083151502179055507fdde5321c1ce3b4978008f2336687eb46631fa0acf28d7ca88f8c2e1ad46ce5c78160405161047c9190610cf6565b60405180910390a150565b6000600160009054906101000a900473ffffffffffffffffffffffffffffffffffffffff1673ffffffffffffffffffffffffffffffffffffffff166370a08231336040518263ffffffff167c01000000000000000000000000000000000000000000000000000000000281526004016105009190610bea565b60206040518083038186803b15801561051857600080fd5b505afa15801561052c573d6000803e3d6000fd5b505050506040513d601f19601f820116820180604052508101906105509190610af6565b905090565b600260009054906101000a900473ffffffffffffffffffffffffffffffffffffffff1681565b60046020528060005260406000206000915090505481565b60066020528060005260406000206000915054906101000a900460ff1681565b60008054906101000a900473ffffffffffffffffffffffffffffffffffffffff1681565b6000811161061a576040517f08c379a000000000000000000000000000000000000000000000000000000000815260040161061190610cd6565b60405180910390fd5b600160009054906101000a900473ffffffffffffffffffffffffffffffffffffffff1673ffffffffffffffffffffffffffffffffffffffff166323b872dd3330846040518463ffffffff167c010000000000000000000000000000000000000000000000000000000002815260040161069593929190610c05565b602060405180830381600087803b1580156106af57600080fd5b505af11580156106c3573d6000803e3d6000fd5b505050506040513d601f19601f820116820180604052508101906106e79190610aa4565b50600260009054906101000a900473ffffffffffffffffffffffffffffffffffffffff1673ffffffffffffffffffffffffffffffffffffffff1663a9059cbb33836040518363ffffffff167c0100000000000000000000000000000000000000000000000000000000028152600401610761929190610c3c565b602060405180830381600087803b15801561077b57600080fd5b505af115801561078f573d6000803e3d6000fd5b505050506040513d601f19601f820116820180604052508101906107b39190610aa4565b5080600460003373ffffffffffffffffffffffffffffffffffffffff1673ffffffffffffffffffffffffffffffffffffffff168152602001908152602001600020546107ff9190610d22565b600460003373ffffffffffffffffffffffffffffffffffffffff1673ffffffffffffffffffffffffffffffffffffffff16815260200190815260200160002081905550600560003373ffffffffffffffffffffffffffffffffffffffff1673ffffffffffffffffffffffffffffffffffffffff16815260200190815260200160002060009054906101000a900460ff166108f7576003339080600181540180825580915050600190039060005260206000200160009091909190916101000a81548173ffffffffffffffffffffffffffffffffffffffff021916908373ffffffffffffffffffffffffffffffffffffffff1602179055505b6001600660003373ffffffffffffffffffffffffffffffffffffffff1673ffffffffffffffffffffffffffffffffffffffff16815260200190815260200160002060006101000a81548160ff0219169083151502179055506001600560003373ffffffffffffffffffffffffffffffffffffffff1673ffffffffffffffffffffffffffffffffffffffff16815260200190815260200160002060006101000a81548160ff0219169083151502179055507f86c3b87594371e15572651c1f5731ba0bc5fd4849502e9999ab2bfe1f3c0c2c7816040516109d69190610cf6565b60405180910390a150565b60056020528060005260406000206000915054906101000a900460ff1681565b600160009054906101000a900473ffffffffffffffffffffffffffffffffffffffff1681565b600081359050610a3681610e37565b92915050565b600081519050610a4b81610e4e565b92915050565b600081359050610a6081610e65565b92915050565b600081519050610a7581610e65565b92915050565b600060208284031215610a8d57600080fd5b6000610a9b84828501610a27565b91505092915050565b600060208284031215610ab657600080fd5b6000610ac484828501610a3c565b91505092915050565b600060208284031215610adf57600080fd5b6000610aed84828501610a51565b91505092915050565b600060208284031215610b0857600080fd5b6000610b1684828501610a66565b91505092915050565b610b2881610d78565b82525050565b610b3781610d8a565b82525050565b610b4681610dc0565b82525050565b610b5581610de4565b82525050565b6000610b68601d83610d11565b91507f696e76657374696e672062616c616e63652063616e6e6f7420626520300000006000830152602082019050919050565b6000610ba8601283610d11565b91507f616d6f756e742063616e6e6f74206265203000000000000000000000000000006000830152602082019050919050565b610be481610db6565b82525050565b6000602082019050610bff6000830184610b1f565b92915050565b6000606082019050610c1a6000830186610b1f565b610c276020830185610b1f565b610c346040830184610bdb565b949350505050565b6000604082019050610c516000830185610b1f565b610c5e6020830184610bdb565b9392505050565b6000602082019050610c7a6000830184610b2e565b92915050565b6000602082019050610c956000830184610b3d565b92915050565b6000602082019050610cb06000830184610b4c565b92915050565b60006020820190508181036000830152610ccf81610b5b565b9050919050565b60006020820190508181036000830152610cef81610b9b565b9050919050565b6000602082019050610d0b6000830184610bdb565b92915050565b600082825260208201905092915050565b6000610d2d82610db6565b9150610d3883610db6565b9250827fffffffffffffffffffffffffffffffffffffffffffffffffffffffffffffffff03821115610d6d57610d6c610e08565b5b828201905092915050565b6000610d8382610d96565b9050919050565b60008115159050919050565b600073ffffffffffffffffffffffffffffffffffffffff82169050919050565b6000819050919050565b6000610dcb82610dd2565b9050919050565b6000610ddd82610d96565b9050919050565b6000610def82610df6565b9050919050565b6000610e0182610d96565b9050919050565b7f4e487b7100000000000000000000000000000000000000000000000000000000600052601160045260246000fd5b610e4081610d78565b8114610e4b57600080fd5b50565b610e5781610d8a565b8114610e6257600080fd5b50565b610e6e81610db6565b8114610e7957600080fd5b5056fea2646970667358221220776b4245524ec4f83c6d90a7f53e6407f1aba814b3825560c2f4e6faba56ad9d64736f6c63430008000033",
  "immutableReferences": {},
  "source": "// SPDX-License-Identifier: GPL-3.0\r\npragma solidity ^0.8.0;\r\n\r\nimport '@openzeppelin/contracts/token/ERC20/IERC20.sol';\r\nimport \"./PiperToken.sol\";\r\n\r\ncontract MySmartContract {\r\n    address public owner;\r\n    IERC20 public dai;\r\n    PiperToken public pToken;\r\n\r\n    event Send(uint amount);\r\n    event Unsend(uint amount);\r\n    \r\n    address[] public investers;\r\n    mapping(address => uint) public investingBalance;\r\n    mapping(address => bool) public hasInvested;\r\n    mapping(address => bool) public isInvesting;\r\n\r\n\r\n\r\n    constructor(address _daiToken, PiperToken _pToken) {\r\n        dai = IERC20(_daiToken);\r\n\t    pToken = _pToken;\r\n\t    owner = msg.sender;\r\n    }\r\n\r\n    function bal() view public returns (uint) {\r\n        return dai.balanceOf(address(msg.sender));\r\n    }\r\n    \r\n    function investTokens(uint _amount) public {\r\n        // Require amount greater than 0\r\n        require(_amount > 0, \"amount cannot be 0\");\r\n\r\n        // Trasnfer Mock Dai tokens to this contract for investing\r\n        dai.transferFrom(msg.sender, address(this), _amount);\r\n\t    pToken.transfer(msg.sender, _amount);\r\n\r\n        // Update investing balance\r\n        investingBalance[msg.sender] = investingBalance[msg.sender] + _amount;\r\n\r\n        // Add user to investers array *only* if they haven't invested already\r\n        if(!hasInvested[msg.sender]) {\r\n            investers.push(msg.sender);\r\n        }\r\n\r\n        // Update investing status\r\n        isInvesting[msg.sender] = true;\r\n        hasInvested[msg.sender] = true;\r\n\r\n        emit Send(_amount);\r\n    }\r\n\r\n    function withdraw() public {\r\n        // Fetch staking balance\r\n        uint balance = investingBalance[msg.sender];\r\n\r\n        // Require amount greater than 0\r\n        require(balance > 0, \"investing balance cannot be 0\");\r\n\r\n        // Transfer Mock Dai tokens to this contract for staking\r\n        dai.transfer(msg.sender, balance);\r\n\r\n        // Reset investing balance\r\n        investingBalance[msg.sender] = 0;\r\n\r\n        // Update investing status\r\n        isInvesting[msg.sender] = false;\r\n        emit Unsend(balance);\r\n    }\r\n\t\r\n\t\r\n}\r\n\r\n",
  "sourcePath": "D:\\Solidity_Projects\\piperSwap\\contracts\\MySmartContract.sol",
  "compiler": {
    "name": "solc",
    "version": "0.8.0+commit.c7dfd78e.Emscripten.clang"
  },
  "schemaVersion": "3.4.3",
  "updatedAt": "2021-09-27T11:40:07.795Z",
  "networkType": "ethereum",
  "devdoc": {
    "kind": "dev",
    "methods": {},
    "version": 1
  },
  "userdoc": {
    "kind": "user",
    "methods": {},
    "version": 1
  }
}