{
  "contractName": "MySmartContract",
  "abi": [
    {
      "inputs": [
        {
          "internalType": "address",
          "name": "_daiToken",
          "type": "address"
        }
      ],
      "stateMutability": "nonpayable",
      "type": "constructor"
    },
    {
      "inputs": [],
      "name": "send",
      "outputs": [
        {
          "internalType": "uint256",
          "name": "",
          "type": "uint256"
        }
      ],
      "stateMutability": "view",
      "type": "function",
      "constant": true
    }
  ],
  "bytecode": "0x608060405234801561001057600080fd5b506040516103613803806103618339818101604052810190610032919061008d565b806000806101000a81548173ffffffffffffffffffffffffffffffffffffffff021916908373ffffffffffffffffffffffffffffffffffffffff160217905550506100ff565b600081519050610087816100e8565b92915050565b60006020828403121561009f57600080fd5b60006100ad84828501610078565b91505092915050565b60006100c1826100c8565b9050919050565b600073ffffffffffffffffffffffffffffffffffffffff82169050919050565b6100f1816100b6565b81146100fc57600080fd5b50565b6102538061010e6000396000f3fe608060405234801561001057600080fd5b5060043610610048576000357c010000000000000000000000000000000000000000000000000000000090048063b46300ec1461004d575b600080fd5b61005561006b565b60405161006291906101af565b60405180910390f35b60008060009054906101000a900473ffffffffffffffffffffffffffffffffffffffff1673ffffffffffffffffffffffffffffffffffffffff166370a08231336040518263ffffffff167c01000000000000000000000000000000000000000000000000000000000281526004016100e39190610194565b60206040518083038186803b1580156100fb57600080fd5b505afa15801561010f573d6000803e3d6000fd5b505050506040513d601f19601f82011682018060405250810190610133919061014d565b905090565b60008151905061014781610206565b92915050565b60006020828403121561015f57600080fd5b600061016d84828501610138565b91505092915050565b61017f816101ca565b82525050565b61018e816101fc565b82525050565b60006020820190506101a96000830184610176565b92915050565b60006020820190506101c46000830184610185565b92915050565b60006101d5826101dc565b9050919050565b600073ffffffffffffffffffffffffffffffffffffffff82169050919050565b6000819050919050565b61020f816101fc565b811461021a57600080fd5b5056fea264697066735822122072c3807502f2808558f3cc40ea82c008db5c17372f0a2e7a79bdd69e2afd92e764736f6c63430008000033",
  "immutableReferences": {},
  "source": "//SPDX-License-Identifier: MIT\r\npragma solidity ^0.8.0;\r\n\r\nimport '@openzeppelin/contracts/token/ERC20/IERC20.sol';\r\n\r\ncontract MySmartContract {\r\n    IERC20 dai;\r\n    constructor(address _daiToken) {\r\n        dai = IERC20(_daiToken);\r\n    }\r\n\r\n    function send() view public returns (uint) {\r\n        return dai.balanceOf(address(msg.sender));\r\n    }\r\n}\r\n\r\n",
  "sourcePath": "D:\\Solidity_Projects\\YeildFaming\\contracts\\MySmartContract.sol",
  "compiler": {
    "name": "solc",
    "version": "0.8.0+commit.c7dfd78e.Emscripten.clang"
  },
  "schemaVersion": "3.4.3",
  "updatedAt": "2021-09-27T06:13:41.382Z",
  "networkType": "ethereum",
  "devdoc": {
    "kind": "dev",
    "methods": {},
    "version": 1
  },
  "userdoc": {
    "kind": "user",
    "methods": {},
    "version": 1
  }
}